{
  "contractName": "VaccineRegistration",
  "abi": [
    {
      "inputs": [
        {
          "name": "_secondary",
          "type": "address"
        },
        {
          "name": "_tertiary",
          "type": "address"
        }
      ],
      "payable": false,
      "stateMutability": "nonpayable",
      "type": "constructor"
    },
    {
      "constant": false,
      "inputs": [
        {
          "name": "_data",
          "type": "string"
        }
      ],
      "name": "registerData",
      "outputs": [],
      "payable": false,
      "stateMutability": "nonpayable",
      "type": "function"
    },
    {
      "constant": true,
      "inputs": [
        {
          "name": "_index",
          "type": "uint256"
        }
      ],
      "name": "getData",
      "outputs": [
        {
          "name": "_data",
          "type": "string"
        }
      ],
      "payable": false,
      "stateMutability": "view",
      "type": "function"
    },
    {
      "constant": true,
      "inputs": [],
      "name": "getLength",
      "outputs": [
        {
          "name": "_length",
          "type": "uint256"
        }
      ],
      "payable": false,
      "stateMutability": "view",
      "type": "function"
    },
    {
      "constant": false,
      "inputs": [
        {
          "name": "_index",
          "type": "uint256"
        }
      ],
      "name": "deleteData",
      "outputs": [],
      "payable": false,
      "stateMutability": "nonpayable",
      "type": "function"
    }
  ],
  "bytecode": "0x608060405234801561001057600080fd5b506040516040806107818339810180604052810190808051906020019092919080519060200190929190505050336000806101000a81548173ffffffffffffffffffffffffffffffffffffffff021916908373ffffffffffffffffffffffffffffffffffffffff16021790555081600160006101000a81548173ffffffffffffffffffffffffffffffffffffffff021916908373ffffffffffffffffffffffffffffffffffffffff16021790555080600260006101000a81548173ffffffffffffffffffffffffffffffffffffffff021916908373ffffffffffffffffffffffffffffffffffffffff1602179055505050610671806101106000396000f300608060405260043610610062576000357c0100000000000000000000000000000000000000000000000000000000900463ffffffff1680630178fe3f146100675780634fe8b4c11461010d578063be1c766b1461013a578063c8f11ee114610165575b600080fd5b34801561007357600080fd5b50610092600480360381019080803590602001909291905050506101ce565b6040518080602001828103825283818151815260200191508051906020019080838360005b838110156100d25780820151818401526020810190506100b7565b50505050905090810190601f1680156100ff5780820380516001836020036101000a031916815260200191505b509250505060405180910390f35b34801561011957600080fd5b5061013860048036038101908080359060200190929190505050610289565b005b34801561014657600080fd5b5061014f6103a6565b6040518082815260200191505060405180910390f35b34801561017157600080fd5b506101cc600480360381019080803590602001908201803590602001908080601f01602080910402602001604051908101604052809392919081815260200183838082843782019150505050505091929192905050506103b3565b005b60606003828154811015156101df57fe5b906000526020600020018054600181600116156101000203166002900480601f01602080910402602001604051908101604052809291908181526020018280546001816001161561010002031660029004801561027d5780601f106102525761010080835404028352916020019161027d565b820191906000526020600020905b81548152906001019060200180831161026057829003601f168201915b50505050509050919050565b6000809054906101000a900473ffffffffffffffffffffffffffffffffffffffff1673ffffffffffffffffffffffffffffffffffffffff163373ffffffffffffffffffffffffffffffffffffffff1614806103315750600160009054906101000a900473ffffffffffffffffffffffffffffffffffffffff1673ffffffffffffffffffffffffffffffffffffffff163373ffffffffffffffffffffffffffffffffffffffff16145b806103895750600260009054906101000a900473ffffffffffffffffffffffffffffffffffffffff1673ffffffffffffffffffffffffffffffffffffffff163373ffffffffffffffffffffffffffffffffffffffff16145b151561039457600080fd5b806003816103a29190610500565b5050565b6000600380549050905090565b6000809054906101000a900473ffffffffffffffffffffffffffffffffffffffff1673ffffffffffffffffffffffffffffffffffffffff163373ffffffffffffffffffffffffffffffffffffffff16148061045b5750600160009054906101000a900473ffffffffffffffffffffffffffffffffffffffff1673ffffffffffffffffffffffffffffffffffffffff163373ffffffffffffffffffffffffffffffffffffffff16145b806104b35750600260009054906101000a900473ffffffffffffffffffffffffffffffffffffffff1673ffffffffffffffffffffffffffffffffffffffff163373ffffffffffffffffffffffffffffffffffffffff16145b15156104be57600080fd5b60038190806001815401808255809150509060018203906000526020600020016000909192909190915090805190602001906104fb92919061052c565b505050565b8154818355818111156105275781836000526020600020918201910161052691906105ac565b5b505050565b828054600181600116156101000203166002900490600052602060002090601f016020900481019282601f1061056d57805160ff191683800117855561059b565b8280016001018555821561059b579182015b8281111561059a57825182559160200191906001019061057f565b5b5090506105a891906105d8565b5090565b6105d591905b808211156105d157600081816105c891906105fd565b506001016105b2565b5090565b90565b6105fa91905b808211156105f65760008160009055506001016105de565b5090565b90565b50805460018160011615610100020316600290046000825580601f106106235750610642565b601f01602090049060005260206000209081019061064191906105d8565b5b505600a165627a7a7230582005d70f07c30cdcb2cc0987998d5fcc336e413187e59bf681b82cc1e01b0c6b6e0029",
  "source": "pragma solidity^0.4.21;\n\ncontract VaccineRegistration {\n\naddress owner;\naddress secondary;\naddress tertiary;\n\nconstructor(address _secondary, address _tertiary) public {\n  owner = msg.sender;\n  secondary = _secondary;\n  tertiary = _tertiary;\n}\n\nmodifier onlyOwners() {\n  require(msg.sender == owner ||\n    msg.sender == secondary ||\n    msg.sender == tertiary);\n    _;\n}\n\nstring[] vaccines;\n\nfunction registerData(string _data) public onlyOwners {\n  vaccines.push(_data);\n}\n\nfunction getData(uint _index) public view returns(string _data) {\n  return vaccines[_index];\n}\n\nfunction getLength() public view returns(uint _length) {\n    return vaccines.length;\n}\n\nfunction deleteData(uint _index) public onlyOwners {\n    vaccines.length = _index;\n}\n}\n",
  "sourcePath": "/Users/yakko.majuri/Desktop/dApp Projects/vaccine-eth/contracts/VaccineRegistration.sol",
  "compiler": {
    "name": "solc",
    "version": "0.4.24+commit.e67f0147.Emscripten.clang"
  },
  "schemaVersion": "2.0.1",
  "updatedAt": "2019-01-22T11:03:36.426Z"
}